:020000040000FA
:100000000C9462000C948A000C948A000C948A0070
:100010000C948A000C948A000C948A000C948A0038
:100020000C948A000C948A000C948A000C94A0030F
:100030000C948A000C948A000C948A000C948A0018
:100040000C9456030C948A000C9424030C94FE0226
:100050000C948A000C948A000C948A000C948A00F8
:100060000C948A000C948A000000000024002700F1
:100070002A0000000000250028002B0000000000DE
:1000800023002600290004040404040404040202DA
:100090000202020203030303030301020408102007
:1000A0004080010204081020010204081020000012
:1000B0000008000201000003040700000000000027
:1000C00000005C0411241FBECFEFD8E0DEBFCDBF1F
:1000D00011E0A0E0B1E0ECE4FEE002C005900D927A
:1000E000A231B107D9F721E0A2E1B1E001C01D9230
:1000F000AB3EB207E1F710E0C2E6D0E004C02197C2
:10010000FE010E941E07C136D107C9F70E94B9043B
:100110000C9424070C940000AF92BF92CF92DF9210
:10012000EF92FF920F931F93CF93DF936C017B01AC
:100130008B01040F151FEB015E01AE18BF08C0173D
:10014000D10759F06991D601ED91FC910190F081B0
:10015000E02DC6010995892B79F7C501DF91CF9173
:100160001F910F91FF90EF90DF90CF90BF90AF90D5
:100170000895FC01538D448D252F30E0842F90E0AD
:10018000821B930B541710F0CF9608950197089592
:10019000FC01918D828D981761F0A28DAE0FBF2F5B
:1001A000B11D5D968C91928D9F5F9F73928F90E0B1
:1001B00008958FEF9FEF0895FC01918D828D981720
:1001C00031F0828DE80FF11D858D90E008958FEF5D
:1001D0009FEF0895FC01918D228D892F90E0805C26
:1001E0009F4F821B91098F739927089586E291E0B2
:1001F0000E94EA0021E0892B09F420E0822F089573
:1002000080E090E0892B29F00E94F60081110C9487
:1002100000000895FC01A48DA80FB92FB11DA35AA9
:10022000BF4F2C91848D90E001968F739927848F16
:10023000A689B7892C93A089B1898C918370806439
:100240008C93938D848D981306C00288F389E02DDA
:1002500080818F7D80830895EF92FF920F931F938B
:10026000CF93DF93EC0181E0888F9B8D8C8D981369
:100270001AC0E889F989808185FF15C09FB7F89475
:10028000EE89FF896083E889F989808183708064C1
:1002900080839FBF81E090E0DF91CF911F910F910C
:1002A000FF90EF900895F62E0B8D10E00F5F1F4F1B
:1002B0000F731127E02E8C8D8E110CC00FB607FC2A
:1002C000FACFE889F989808185FFF5CFCE010E94B8
:1002D0000A01F1CFEB8DEC0FFD2FF11DE35AFF4F1B
:1002E000F0829FB7F8940B8FEA89FB898081806246
:1002F000CFCFCF93DF93EC01888D8823B9F0AA8903
:10030000BB89E889F9898C9185FD03C0808186FDD0
:100310000DC00FB607FCF7CF8C9185FFF2CF80811F
:1003200085FFEDCFCE010E940A01E9CFDF91CF9189
:100330000895833081F028F4813099F08230A9F05B
:1003400008958730A9F08830C9F08430B1F48091E5
:1003500080008F7D03C0809180008F778093800024
:10036000089584B58F7784BD089584B58F7DFBCFC4
:100370008091B0008F778093B00008958091B00095
:100380008F7DF9CFCF93DF93282F30E0F901E2552D
:10039000FF4F8491F901E656FF4FD491F901EA57D6
:1003A000FF4FC491CC23A1F081110E949901EC2F41
:1003B000F0E0EE0FFF1FE458FF4FA591B491EC91D0
:1003C000ED2381E090E009F480E0DF91CF91089582
:1003D00080E090E0FACF1F93CF93DF93282F30E097
:1003E000F901E255FF4F8491F901E656FF4FD49190
:1003F000F901EA57FF4FC491CC23A9F0162F8111C0
:100400000E949901EC2FF0E0EE0FFF1FEE58FF4F16
:10041000A591B4918FB7F894EC91111108C0D095C3
:10042000DE23DC938FBFDF91CF911F910895DE2BE8
:10043000F8CFCF93DF9390E0FC01E656FF4F249175
:100440008A579F4FFC0184918823D1F090E0880F58
:10045000991FFC01E859FF4FA591B491FC01EE589A
:10046000FF4FC591D49161110EC09FB7F8948C9144
:10047000E22FE0958E238C932881E223E8839FBFAF
:10048000DF91CF9108958FB7F894EC91E22BEC9324
:100490008FBFF6CF1F93CF93DF93182FEB0161E04F
:1004A0000E941902209739F460E0812FDF91CF91EB
:1004B0001F910C94EB01CF3FD10511F461E0F5CF12
:1004C000E12FF0E0E255FF4FE491E33031F140F4E9
:1004D000E130B1F0E230E1F0C038D1057CF7E4CF93
:1004E000E73029F1E83059F1E430B1F7809180002C
:1004F000806280938000D0938B00C0938A0004C0F8
:1005000084B5806884BDC7BDDF91CF911F910895E8
:1005100084B5806284BDC8BDF7CF809180008068BB
:1005200080938000D0938900C0938800EDCF8091A4
:10053000B00080688093B000C093B300E5CF809195
:10054000B00080628093B000C093B400DDCF3FB7AD
:10055000F8948091180190911901A0911A01B0911D
:100560001B0126B5A89B05C02F3F19F00196A11DC0
:10057000B11D3FBFBA2FA92F982F8827BC01CD01ED
:10058000620F711D811D911D42E0660F771F881F4C
:10059000991F4A95D1F708958F929F92AF92BF927B
:1005A000CF92DF92EF92FF924B015C010E94A70273
:1005B0006B017C010E94A7026C197D098E099F09BD
:1005C000683E734081059105A8F321E0821A9108E5
:1005D000A108B10888EEC80E83E0D81EE11CF11C0A
:1005E00081149104A104B10429F7FF90EF90DF90EA
:1005F000CF90BF90AF909F908F9008951F920F92D1
:100600000FB60F9211242F933F934F935F936F93E5
:100610007F938F939F93AF93BF93EF93FF9386E264
:1006200091E00E940A01FF91EF91BF91AF919F91DC
:100630008F917F916F915F914F913F912F910F908B
:100640000FBE0F901F9018951F920F920FB60F922A
:1006500011242F938F939F93EF93FF93E091360193
:10066000F09137018081E0913C01F0913D0182FDE4
:100670001BC0908180913F018F5F8F73209140015B
:10068000821741F0E0913F01F0E0EA5DFE4F958F67
:1006900080933F01FF91EF919F918F912F910F9048
:1006A0000FBE0F901F9018958081F4CF1F920F926C
:1006B0000FB60F9211242F933F938F939F93AF9375
:1006C000BF938091140190911501A0911601B091F2
:1006D00017013091130123E0230F2D3758F50196B0
:1006E000A11DB11D20931301809314019093150156
:1006F000A0931601B09317018091180190911901F0
:10070000A0911A01B0911B010196A11DB11D80930A
:10071000180190931901A0931A01B0931B01BF9186
:10072000AF919F918F913F912F910F900FBE0F909E
:100730001F90189526E8230F0296A11DB11DD2CF58
:100740001F920F920FB60F9211242F933F934F9346
:100750005F936F937F938F939F93AF93BF93CF9349
:10076000DF93EF93FF9380911201C091E701D0E0F6
:1007700087FF24C01092850010928400809112019E
:100780008F5F8093120180911201082E000C990B4B
:100790008C179D0724F4809112018C30C4F1809154
:1007A000840090918500049680349C4908F47AC0B6
:1007B0008091840090918500049676C0809112010A
:1007C000082E000C990B8C179D07C4F6E0911201BE
:1007D0008E2FEE0F990BFC01EE0FFF1FE80FF91F94
:1007E000ED53FE4F808186FFC9CFE09112018E2F1D
:1007F000EE0F990BFC01EE0FFF1FE80FF91FED53F1
:10080000FE4F808160E08F730E94EB01B7CF209193
:10081000840030918500E09112018E2FEE0F990B2C
:10082000FC01EE0FFF1FE80FF91FED53FE4F818112
:100830009281820F931F9093890080938800E091AA
:1008400012018E2FEE0F990BFC01EE0FFF1FE80F28
:10085000F91FED53FE4F808186FF11C0E091120118
:100860008E2FEE0F990BFC01EE0FFF1FE80FF91F03
:10087000ED53FE4F808161E08F730E94EB01FF9189
:10088000EF91DF91CF91BF91AF919F918F917F9128
:100890006F915F914F913F912F910F900FBE0F90ED
:1008A0001F90189580E49CE99093890080938800BC
:1008B0008FEF80931201E3CF10922901109228014B
:1008C00088EE93E0A0E0B0E080932A0190932B01A2
:1008D000A0932C01B0932D0184E091E09093270127
:1008E0008093260185EC90E0909333018093320150
:1008F00084EC90E0909335018093340180EC90E09B
:10090000909337018093360181EC90E09093390108
:100910008093380182EC90E090933B0180933A0100
:1009200086EC90E090933D0180933C0110923F0152
:100930001092400110924101109242018091E70112
:100940008C3098F491E0980F9093E7018093E80140
:1009500090E0FC01EE0FFF1FE80FF91FED53FE4F73
:1009600088EB9BE09283818308958FEF8093E80169
:100970000895789484B5826084BD84B5816084BD17
:1009800085B5826085BD85B5816085BD80916E002D
:10099000816080936E00109281008091810082605E
:1009A000809381008091810081608093810080919B
:1009B00080008160809380008091B100846080938A
:1009C000B1008091B00081608093B00080917A0086
:1009D000846080937A0080917A00826080937A00AC
:1009E00080917A00816080937A0080917A0080689B
:1009F00080937A001092C10061E083E00E941902A6
:100A000060E084E00E94190260E08EE00E9419021A
:100A100061E087E00E94190261E086E00E9419020D
:100A200061E085E00E94190261E084E00E94190201
:100A300060E08DE00E94190260E08CE00E941902E3
:100A400060E08BE00E94190261E08AE00E941902D6
:100A500061E089E00E941902E0913601F0913701CE
:100A600082E08083E0913201F09133011082E091C5
:100A70003401F09135018FEC808310923E01E091BA
:100A80003A01F0913B0186E08083E0913801F091DA
:100A90003901808180618083E0913801F0913901D2
:100AA000808188608083E0913801F09139018081F4
:100AB00080688083E0913801F091390180818F7DD9
:100AC000808380E0C82E80E0D82E92E0A92EB12C41
:100AD0008DE00E94C2017C01909325018093240146
:100AE0008CE00E94C2018C0190932301809322012B
:100AF0008BE00E94C201EC019093210180932001C0
:100B0000E114F10481F50130110509F068C1009785
:100B100009F015C164E670E08AE00E944A0264E6CA
:100B200070E089E00E944A0261E087E00E94EB01E8
:100B300060E086E00E94EB0161E085E00E94EB014D
:100B400060E084E00E94EB0110921F0110921E01F0
:100B500010921D0110921C016CE271E080E090E0A7
:100B60000E94CC0230C181E0E816F10409F02BC1EB
:100B70000130110509F071C0209709F040C062E30F
:100B800070E08AE00E944A0200911E0110911F014C
:100B9000B8016A567F4F89E00E944A0261E087E00F
:100BA0000E94EB0160E086E00E94EB0161E085E0DD
:100BB0000E94EB0160E084E00E94EB0164E670E0DB
:100BC00080E090E00E94CC026EE170E08AE00E943A
:100BD0004A02B8016C597F4F89E00E944A0261E0E5
:100BE00087E00E94EB0160E086E00E94EB0161E09B
:100BF00085E00E94EB0160E084E00E94EB01219718
:100C000009F0E1C080911C0190911D018130910596
:100C100009F06FC060E570E08AE00E944A0264E675
:100C200070E089E00E944A0261E087E00E94EB01E7
:100C300060E086E00E94EB0160E085E00E94EB014D
:100C400061E084E00E94EB0110921F0110921E01EE
:100C50006CEB72E080E090E083CF012B09F0B3C031
:100C6000CD2B09F0B0C06FE070E08AE00E944A022C
:100C700060911E0170911F0164577F4F89E00E94AF
:100C80004A0261E087E00E94EB0160E086E00E949A
:100C9000EB0161E085E00E94EB0160E084E00E94EE
:100CA000EB01F0921D01E0921C018DC060911E01CC
:100CB00070911F0164577F4F8AE00E944A026FE0E3
:100CC00070E089E00E944A0261E087E00E94EB0147
:100CD00060E086E00E94EB0161E085E00E94EB01AC
:100CE00060E084E00E94EB01B0921D01A0921C0123
:100CF0006AC0029709F067C064E670E08AE00E946B
:100D00004A0260E570E089E00E944A0260E087E004
:100D10000E94EB0161E086E00E94EB0161E085E06A
:100D20000E94EB0160E08DCF029709F04CC068ECA7
:100D300070E08AE00E944A0264E170E067C00197B7
:100D400009F041C0C0911E01D0911F01BE016A5639
:100D50007F4F8AE00E944A0262E370E089E00E94CD
:100D60004A0261E087E00E94EB0160E086E00E94B9
:100D7000EB0161E085E00E94EB0160E084E00E940D
:100D8000EB0164E670E080E090E00E94CC02BE01DE
:100D90006C597F4F8AE00E944A026EE170E089E060
:100DA0000E944A0261E087E00E94EB0170E060E08F
:100DB00086E00E944A0261E085E00E94EB0160E06B
:100DC00084E00E94EB01C114D10409F481CE0E9499
:100DD000F600882309F47CCE0E94000079CE012B16
:100DE00091F7C130D10509F461CFCD2B61F7809126
:100DF0001C0190911D018130910509F095CF64E1AE
:100E000070E08AE00E944A0268EC70E089E00E948B
:100E10004A0261E087E00E94EB0160E086E00E9408
:100E2000EB0161E085E00E94EB0160E084E00E945C
:100E3000EB0110921F0110921E01C5CFEE0FFF1F94
:100E40000590F491E02D0994F894FFCF0000000084
:0E0E50002C018C00B9007901EA00C800DC001A
:107E0000112484B714BE81FFF0D085E080938100F7
:107E100082E08093C00088E18093C10086E0809377
:107E2000C20080E18093C4008EE0C9D0259A86E02C
:107E300020E33CEF91E0309385002093840096BBD3
:107E4000B09BFECF1D9AA8958150A9F7CC24DD24C4
:107E500088248394B5E0AB2EA1E19A2EF3E0BF2EE7
:107E6000A2D0813461F49FD0082FAFD0023811F036
:107E7000013811F484E001C083E08DD089C08234E0
:107E800011F484E103C0853419F485E0A6D080C0E4
:107E9000853579F488D0E82EFF2485D0082F10E0AE
:107EA000102F00270E291F29000F111F8ED06801E7
:107EB0006FC0863521F484E090D080E0DECF843638
:107EC00009F040C070D06FD0082F6DD080E0C81688
:107ED00080E7D80618F4F601B7BEE895C0E0D1E017
:107EE00062D089930C17E1F7F0E0CF16F0E7DF06D8
:107EF00018F0F601B7BEE89568D007B600FCFDCFD4
:107F0000A601A0E0B1E02C9130E011968C91119780
:107F100090E0982F8827822B932B1296FA010C0160
:107F200087BEE89511244E5F5F4FF1E0A038BF0790
:107F300051F7F601A7BEE89507B600FCFDCF97BE46
:107F4000E89526C08437B1F42ED02DD0F82E2BD052
:107F50003CD0F601EF2C8F010F5F1F4F84911BD097
:107F6000EA94F801C1F70894C11CD11CFA94CF0C13
:107F7000D11C0EC0853739F428D08EE10CD085E9AC
:107F80000AD08FE07ACF813511F488E018D01DD067
:107F900080E101D065CF982F8091C00085FFFCCF94
:107FA0009093C60008958091C00087FFFCCF809118
:107FB000C00084FD01C0A8958091C6000895E0E648
:107FC000F0E098E1908380830895EDDF803219F02E
:107FD00088E0F5DFFFCF84E1DECF1F93182FE3DFCA
:107FE0001150E9F7F2DF1F91089580E0E8DFEE27F6
:047FF000FF270994CA
:027FFE00040479
:00000001FF
